:020000040800F2
:10000000680800206501000801180008F1140008C4
:1000100000000000000000000000000000000000E0
:1000200000000000000000000000000005180008AB
:100030000000000000000000031800080718000876
:100040007701000800000000770100087701000830
:1000500077010008770100087701000877010008A0
:100060000000000077010008770100087701000810
:100070007701000877010008770100080000000000
:100080007701000800000000000000007701000870
:1000900000000000770100087701000877010008E0
:1000A0007701000877010008770100087701000850
:1000B00077010008000000000000000000000000C0
:1000C00000F002F800F03EF80CA030C80838241800
:1000D0002D18A246671EAB4654465D46AC4201D180
:1000E00000F030F87E460F3E0FCCB6460126334274
:1000F00000D0FB1AA246AB4633431847F81F000056
:1001000018200000103A02D378C878C1FAD85207F4
:1001100001D330C830C101D504680C6070470000BD
:100120000023002400250026103A01D378C1FBD813
:10013000520700D330C100D50B6070471FB51FBDFB
:1001400010B510BD00F0FAF81146FFF7F7FF01F007
:1001500059FF00F012F903B4FFF7F2FF03BC00F0FF
:1001600019F900000748804707480047FEE7FEE707
:10017000FEE7FEE7FEE7FEE704480549054A064BB1
:100180007047000077180008C100000868020020CE
:1001900068080020680400206804002001E004C012
:1001A000091F0429FBD28B0701D50280801CC907D7
:1001B00000D00270704700290BD0C30702D0027034
:1001C000401C491E022904D3830702D50280801CEB
:1001D000891EE3E70022EEE70022DFE700220309A1
:1001E0008B422CD3030A8B4211D300239C464EE052
:1001F00003460B433CD4002243088B4231D303090E
:100200008B421CD3030A8B4201D394463FE0C309BF
:100210008B4201D3CB01C01A524183098B4201D3D7
:100220008B01C01A524143098B4201D34B01C01AC2
:10023000524103098B4201D30B01C01A5241C3083A
:100240008B4201D3CB00C01A524183088B4201D3A9
:100250008B00C01A524143088B4201D34B00C01A95
:100260005241411A00D201465241104670475DE0AA
:10027000CA0F00D04942031000D34042534000222D
:100280009C4603098B422DD3030A8B4212D3FC22D6
:10029000890112BA030A8B420CD3890192118B4255
:1002A00008D3890192118B4204D389013AD092116B
:1002B00000E08909C3098B4201D3CB01C01A524126
:1002C00083098B4201D38B01C01A524143098B42EF
:1002D00001D34B01C01A524103098B4201D30B01D8
:1002E000C01A5241C3088B4201D3CB00C01A5241FD
:1002F00083088B4201D38B00C01A5241D9D24308E4
:100300008B4201D34B00C01A5241411A00D2014620
:10031000634652415B10104601D34042002B00D58A
:100320004942704763465B1000D3404201B500204C
:10033000C046C04602BD704770477047754600F022
:1003400025F8AE46050069465346C008C0008546FC
:1003500018B020B5FFF710FF60BC00274908B6466B
:100360000026C0C5C0C5C0C5C0C5C0C5C0C5C0C5C4
:10037000C0C5403D49008D46704710B50446C04693
:10038000C0462046FFF7E7FE10BD0000004870475A
:100390000402002001491820ABBEFEE7260002003F
:1003A000704772B6FEE7000070B5044600F0C2F870
:1003B0000546601C02D004480078241800F0BAF802
:1003C000401BA042FAD370BD00000020F0B500230E
:1003D00003249AE02A4601259D402A407ED00E79CA
:1003E000B607B60F012E01D0022E16D18668274619
:1003F000B4465E00B646B7406646BE43B446CF68D4
:100400007646B7406646374387604668AE430D7907
:10041000ED06ED0F9D40354345600D79ED43AD0789
:1004200008D0C5685F002646BE40B5438E68BE4012
:100430002E43C6600D79AD07AD0F022D0ED1DD083C
:10044000AD002D18AC462D6A5E07F60E0F27B7409B
:10045000BD430F69B7402F4365462F6205685F00B3
:100460002646BE40B5430E79B607B60FBE402E43B2
:1004700006604D68AD03AD0F46D09E08264DB60010
:100480007519AC462D6E9E07F60E0F27B740BD437B
:1004900005273F07B84201D100270FE01F4FB842A0
:1004A00001D101270AE01E4FB84201D1022705E021
:1004B0001C4FB84201D1032700E00527B7402F4366
:1004C000154D664637662D684E689543F60200D591
:1004D0001543114F3D607D68954300E014E04E6880
:1004E000B60200D515437D600B4D80356E684F68B0
:1004F0009643BF0300D516436E602E684F6896433F
:10050000FF0300D516432E605B1C0A681546DA40CF
:1005100000D05FE7F0BD000000180240000400506A
:1005200000080050000C0050002A01D08161704783
:100530008162704701488068704700000000002019
:1005400002488168027889188160704700000020A5
:1005500010B508480024016882151143016003208A
:1005600000F00AF8002801D0012401E000F028F88A
:10057000204610BD0020024070B50F4E0024317897
:100580000546002915D07D20C000FFF727FE014653
:100590000A480068FFF722FE00F0BCFC002808D1E2
:1005A000042D06D200222946401E00F01FF8756077
:1005B00000E00124204670BD000000200C00002057
:1005C00008B5094801680122114301600068104024
:1005D000009005484038C26B01040A43C263C06BF7
:1005E0000840009008BD00004010024010B501F026
:1005F000E7FC10BD10B50F4C216803225202914355
:1006000001432160C11FFF39FA390ED10A48062182
:10061000006848430949FFF7E1FD401C02E000285B
:1006200005D0401E61694905F9D4002010BD0320A2
:1006300010BD0000007000400C00002040420F0080
:10064000F8B50446006800264D4D800358D54C4847
:1006500000274038C06BC00009D449484038C26BFD
:1006600001040A43C263C06B08400127009045485B
:100670000168821511430160FFF75CFF009005E0FF
:10068000FFF758FF0099401A022825D83D48006816
:10069000C005F5D5E8690321090208400FD061695A
:1006A00081420CD0E86903210902EA6988430121EB
:1006B00009040A43EA61EA698A43EA61E861C0071A
:1006C0000FD0FFF737FF009008E0FFF733FF0099E6
:1006D000411A2D48814201D9032609E0E8698007C3
:1006E000F3D5E86903210902884361690843E86199
:1006F000002F05D022484038C26B01048A43C263F0
:100700002078C00705D068696168800880000843C8
:1007100068612078800606D568690321090388434B
:10072000A168084368612088400411D5686921697F
:100730008000800808436861012120698907884298
:1007400006D10F484038C168012212041143C1602C
:100750002088000512D56869032189038843E16870
:10076000084368610121E0688903884206D1044892
:100770004038C168012212041143C1603046F8BDFF
:10078000401002400070004088130000F8B50F468A
:10079000060043D04D4D28684007400FB84213D2A1
:1007A0002868C008C00038432860FFF7C3FE04462D
:1007B00005E0FFF7BFFE011B4548814261D828686C
:1007C0004007400FB842F4D13068424C81070DD544
:1007D000400704D5A068072109030843A060A0686A
:1007E0000F2109028843B1680843A0603078C00730
:1007F00032D0706801280AD002280BD000280FD010
:100800003449403103280ED0C969890704E02168C2
:10081000890301E021688901002906DB0120F8BD78
:1008200021684905F8E7096AEFE7A168C908C90026
:100830000143A160FFF77EFE009006E0FFF77AFE1D
:100840000099411A224881421BD8A06838210840EB
:100850007168C9008842F1D128684007400FB8424A
:1008600017D91A480168C908C90039430160FFF760
:1008700061FE054607E0FFF75DFE411B144881421B
:1008800001D90320F8BD114800684007400FB84265
:10089000F1D13078400706D5A068072109038843C5
:1008A000F1680843A06000F031F8A1683C22890992
:1008B0001140094A515CC906C90EC8400749086081
:1008C00007480068FFF758FEF8BD0000002002400E
:1008D0008813000000100240942000080C00002043
:1008E000040000200648074900688968064A490450
:1008F000490F8900515CC906C90EC8407047000005
:100900000C00002000100240D420000810B5204C3C
:10091000A068204A8006400F16D0A0688006410FCC
:10092000501001290FD0A1688906490F022912D061
:10093000A0688006400F042823D0A0688006400FDE
:10094000032821D0002010BD206801218004400F21
:100950008140104612E0E1688B07E1689B0F490671
:10096000490F491C032B00D01046FFF737FCE16804
:100970004904490E4843E168490F491CFFF72EFC22
:1009800010BD0120C00310BD7D20000210BD00007D
:10099000001002400024F400F8B504007ED0207856
:1009A0003827C007E94D002846D0A868E9683840D4
:1009B0008907890F102802D008280BD001E00329ED
:1009C00008D001206268000482420AD129680143EC
:1009D000296015E0286880032ED560680028DDD0E6
:1009E0002AE0052301211B0489049A422A6802D1C6
:1009F0000A432A60EAE782432A602868884328601D
:100A0000606800280CD0FFF795FD064604E0FFF76C
:100A100091FD801B642873D828688003F7D50BE00C
:100A2000FFF788FD064604E0FFF784FD801B64287D
:100A3000F1D828688003F7D42078800769D5A868A2
:100A4000E96838408A070721920FC902102802D0AE
:100A5000002813D001E0022A10D0E068002846D018
:100A6000286888432169084328602868FF210131EC
:100A700008432860FFF75EFD06462CE02A68520511
:100A800002D5E268002A89D06A687F231B029A4354
:100A900063691B021A436A60002800E08DE00ED1F2
:100AA0002868884321690843286028680121800458
:100AB000400F8140A648FFF791FBA6490860A64871
:100AC0000068FFF759FD002877D122E0FFF732FDDB
:100AD000801B02289FD828684005F7D568687F21C9
:100AE00009028843616909020843686011E02968C6
:100AF000FF20013081432960FFF71CFD064605E019
:100B000098E0FFF717FD801B022884D8286840056D
:100B1000F7D42078914E00072ED5A8688006400FA4
:100B200003280AD0A0690028306A16D001210843A2
:100B30003062FFF7FFFC07460BE0306A80071BD5E9
:100B4000A06900289FD017E0FFF7F4FCC01B022823
:100B500070D8306A8007F7D50EE040084000306258
:100B6000FFF7E8FC074604E0FFF7E4FCC01B02289F
:100B700060D8306A8007F7D4207840076CD5A86821
:100B800000278006400F042818D0E86BC00008D466
:100B9000E96B012000070143E963E96B014001278C
:100BA00000916F480168C90519D401688215114385
:100BB0000160FFF7BFFC00900DE083E0F069800763
:100BC0004AD5A06800287DD046E0FFF7B3FC009925
:100BD000401A02282ED862480068C005F5D5A168E1
:100BE000012910D004200529F16911D049084900D4
:100BF000F161F1698143F161A068002816D0FFF727
:100C000099FC00900EE0F06901210843F061F3E7E0
:100C10000143F161F7E7FFF78DFC0099411A514854
:100C2000814265D8F0698007F5D50EE0FFF782FCB8
:100C3000009007E05CE0FFF77DFC0099411A49480D
:100C4000814255D8F0698007F5D4002F04D0E96BB4
:100C5000012000078143E963E069002873D0A96897
:100C60008906490F02294DD0012636060228286838
:100C700005D0B0432860FFF75DFC04463AE0B0437E
:100C80002860FFF757FC074604E0FFF753FCC01B42
:100C900002282DD828688001F7D4616A206AA26AE8
:100CA0000843E16A120211430843216B0843E968D3
:100CB0002D4A11400843E860286830432860E868FE
:100CC000012100E03DE009070843E860FFF732FC3E
:100CD000044604E0FFF72EFC001B022808D8286811
:100CE0008001F7D52FE0FFF725FC001B022801D972
:100CF0000320F8BD28688001F5D4E8681B49084046
:100D0000E86020E00128F4D0E868226A8107890FB2
:100D1000914216D17021626A0140914211D17F2126
:100D2000A26A09020140120291420AD11F2149041C
:100D3000E26A0140914204D1400F216B4007884292
:100D400001D00120F8BD0020F8BD000000100240D5
:100D50000024F4000C000020040000204010024099
:100D600000700040881300008C80C11FFCFFFEEF64
:100D7000F8B504000CD0606A002500280AD025616F
:100D8000656126464036A562707F002808D00BE0DA
:100D90000120F8BD6168C81FFD38F2D0E561F0E7B9
:100DA0003577204600F05CF80222727720680168EF
:100DB0004023994301600723E1681B02994201D94E
:100DC000002001E0012000030F273F02B94202D0BA
:100DD000994200D0A562FF2361680533194021279D
:100DE000A368BF023B40194323691340227D194386
:100DF000D207D20F11430123A2695B021A401143AB
:100E0000E26938231A401143226A80231A401143B1
:100E1000A26A9B011A40114322681160A169042251
:100E2000090C1140626A10231A401143626B0823B7
:100E30001A4011430F23E2681B021A40114301229A
:100E4000120310400143206841602068C1695210BC
:100E50009143C1612566012070770020F8BD000034
:100E600070B586B0044614216846FFF7B5F9254BE6
:100E700021680024244801220225994224D12249D4
:100E800040310E6883141E430E60096819400591B5
:100E9000416B11434163406B0526104005900420CF
:100EA000009003203607039001950294694604944C
:100EB0003046FFF78BFA2020009002940394694695
:100EC00001950494304618E0104B994217D1C36B3A
:100ED00009140B43C363C36B0B400593416B294358
:100EE0004163406B029428400590FF2081300090C0
:100EF00069460195039404920548FFF767FA06B026
:100F000070BD000000300140001002400038004079
:100F100000040050094910B5401E884201D9012043
:100F200010BD074C60610321081F01F049F8002043
:100F3000A06107202061002010BD0000FFFFFF001E
:100F400000E000E030B5034620331A7F012A49D083
:100F500001221A770325CA682D02AA438D6800680A
:100F60002A430125AD02AA434D6800242A430125E6
:100F7000ED02AA430D682A4301252D03AA430D69FA
:100F80002A4301256D03AA434D692A430125AD0378
:100F9000AA430D6B2A430F252D04AA430D8B2D0464
:100FA0002A4301252D07AA43CD692A430E4DA842A5
:100FB00014D10F252D05AA430D8D2D052A4301259A
:100FC0002D06AA430D6A2A4301256D06AA434D6AE0
:100FD000C96A2A4301256D07AA430A4342641C7764
:100FE000002030BD022030BD002C0140F0B503468A
:100FF00020331A7F012A24D001221A7702225A773D
:1010000004686268A568104FBC4205D116460F22DD
:10101000120596434A6832437026B2430E6816435F
:1010200066600068B84202D0084A904204D180222B
:1010300089689543294381600120587700201877FB
:10104000F0BD0220F0BD0000002C01400004004073
:10105000F8B50D46040005D026462036707F0028DE
:1010600002D006E00120F8BD00203077204600F0D5
:1010700043F802207077206881681C4A1140816023
:10108000211D206800F0F8FB226890689369116ABE
:101090002F680743BC461648AF6903403F021F4311
:1010A000A868144B3843EF6918403F020743EB68C8
:1010B00028693B432F6A00013F0338431843AA23A2
:1010C00099436B686D6967462D010D432B4397600B
:1010D0002168886120680362012040342072B07763
:1010E000F0772071607170770020F8BDF8BFFEFFC7
:1010F000FCFCFFFF0303FFFF10B586B0044614217C
:101100006846FFF769F81049206888421AD10F48ED
:10111000C26B02210A43C263C26B0A400592436B51
:10112000012213434363406B019110400590C0209E
:101130000090002002900390052069460492000769
:10114000FFF744F906B010BD000400400010024053
:1011500010B586B0044614216846FFF73DF80D49E6
:101160002068884213D10C48426B02210A43426333
:10117000406B0191084005900820009000200290EB
:1011800003900120049069460448FFF71FF906B058
:1011900010BD0000002C014000100240000400506F
:1011A000F8B504460020264620360090307F0D46D4
:1011B00001280CD00120082730770C2A48D008DC01
:1011C000002A10D0042A1ED0082A06D130E00220BE
:1011D000F8BD102A52D0142A60D0012000900020BF
:1011E00030770098F8BD206800F08AFB206881699C
:1011F00039438161206881690422914381612068BB
:1012000081692A6911E0206800F0B8FB20688169D3
:101210000122D202114381612068816952109143F9
:101220008161206881692A69120211438161D6E7D0
:10123000206800F0E1FB2068C1693943C161206882
:10124000C16904229143C1612068C1692A6912E021
:10125000206800F00FFC2068C1690122D20211430E
:10126000C1612068C269012189028A43C261206884
:10127000C1692A6912021143C161B0E7206800F018
:101280002DFC2068416D394341652068426D042181
:101290008A4342652068416D2A6912E0206800F0A7
:1012A0004BFC2068416D0122D20211434165206848
:1012B000426D012189028A4342652068416D2A6995
:1012C0001202114341658AE770B5040005D0254636
:1012D0002035687F002802D006E0012070BD002084
:1012E0002877204600F016F802206877211D206834
:1012F00000F0C2FA012240342272AA77EA77227003
:101300006270A270E27022716271A271E2716A77FA
:10131000002070BD08B500680549884207D105481E
:101320000268C1140A43026000680840009008BDCA
:10133000002C01404010024010B5014680310A796E
:10134000012A15D001220A7124228A6002681368DA
:101350001468640864001460012252079343002259
:10136000426600680360202088600A71104610BD44
:10137000022010BD70B5044605468034207901284E
:101380001AD0012020712420A06028680668026815
:101390005208520002602868826807235B069A435D
:1013A0000A438260284600F0F9FB28680660202086
:1013B000A0600020207170BD022070BD70B5044691
:1013C000054680342079012819D00120207124207D
:1013D000A060286806680268520852000260286807
:1013E0008268D200D2080A438260284600F0D6FB09
:1013F000286806602020A0600020207170BD0220B7
:1014000070BD70B5040005D025468035A868002859
:1014100002D006E0012070BD00202871204600F0B7
:1014200027F82420A8602068016849084900016065
:10143000A06A002802D0204600F0D2FB204600F02F
:10144000C3FC0128E7D0206841680922D2029143F9
:101450004160206881682A22914381602068016888
:10146000012211430160204600F020FC70BD000005
:1014700030B58DB0044614216846FEF7ADFE182144
:1014800005A8FEF7A9FE18492068884229D1012441
:10149000002505A806950594FFF7D2F8002801D08D
:1014A000FEF77FFF11480268012189030A430260A9
:1014B000006808400B900D484038416B2143416360
:1014C000406B0295C007C00F0B90032040020090B4
:1014D0000220019005206946039504940007FEF759
:1014E00075FF0DB030BD00000038014040100240D3
:1014F000FEE70000F0B587B014216846FEF76CFEE9
:101500003248416B022631434163416B31400591C2
:10151000426B04210A434263426B0A400592416BCD
:10152000012421434163406B224620400590610223
:101530002748FEF7F9FF0122052011460007FEF7B4
:10154000F3FF0A210022C806FEF7EEFF0122402128
:101550002048FEF7E9FF002260211D48FEF7E4FF66
:1015600009208001002503276A46B1C26946184850
:10157000FEF72CFFE0030090029569460196039563
:1015800004941448FEF722FF0B206A46B1C20520DE
:1015900069460007FEF71AFF019569460C48029557
:1015A0000094FEF713FF40200090019402946946D6
:1015B00003940848FEF70AFF2020694631C16946B6
:1015C00003480395FEF702FF07B0F0BD001002408C
:1015D000000400500008005010B511480F49016088
:1015E000FF21053141600021072281601202016163
:1015F000C2604161C16101220162520241628261A5
:1016000081620722C262016308214163FFF7B0FBD8
:10161000002801D0FEF7C5FE10BD000000300140DB
:101620001000002010B511480F490160FF2105315D
:10163000416000210722816012020161C2604161A4
:10164000C16101220162520241628261816207220C
:10165000C262016308214163FFF78AFB002801D0C1
:10166000FEF79FFE10BD000000380040740000200F
:1016700010B598B00024149415941C210DA816944C
:10168000FEF7AAFD34216846FEF7A6FD2449254849
:1016900012C004608460C46023490461416008385A
:1016A000FFF712FE002801D0FEF77BFE149415947C
:1016B00014A91C481694FFF799FC002801D0FEF7E6
:1016C00070FE602012940E940D900F94109411945B
:1016D00004220DA913941348FFF762FD002801D0DE
:1016E000FEF75FFE012000944003059001940294F0
:1016F00004940003039406940794099008940A94B0
:101700000B9469460C940748FFF71CFC002801D095
:10171000FEF747FE0348FFF71BFD18B010BD0000A1
:10172000002C0140D8000020FFFF000010B58CB055
:1017300024216846FEF750FD0024144914480994FA
:101740000A940B9412C004608460124904614160E1
:101750000120009001940290039406900494059453
:101760000794694608940A48FFF772FC002801D0E4
:10177000FEF717FE099409A905480B94FFF736FCFC
:10178000002801D0FEF70DFE0CB010BD0004004093
:1017900024010020FFFF000010B518481649016021
:1017A000E1214902416000218160C16001618161E4
:1017B000C16101620C22416242618162FFF721FE38
:1017C000002801D0FEF7EDFD00210C48FFF7F6FDE3
:1017D000002801D0FEF7E5FD00210848FFF7CAFD0B
:1017E000002801D0FEF7DDFD0448FFF7A5FD002825
:1017F00001D0FEF7D6FD10BD003801407001002079
:10180000FEE77047704710B5FEF79AFE10BD30B581
:1018100091B034216846FEF7DFFC002501200D95CC
:101820000E950F9540021095FEF7E4FE0224E001AC
:10183000039000944020059008200A9080030B90AC
:101840000794000304950C90099508946846FFF7E7
:10185000A3F8002801D072B6FEE707200DA931C118
:1018600002210DA81095FEF791FF002801D072B655
:10187000FEE711B030BD704770B502681B4B1C4EBF
:10188000984201D0B04203D17024A2434C68224355
:10189000184C194D984208D0B04206D0174EB042AD
:1018A00003D0A04201D0A84204D103263602B2439D
:1018B000CE6832438026B2434E69324302608A6862
:1018C000C2620A688262984203D0A04201D0A84254
:1018D00001D109690163012141610169C90703D08F
:1018E000016949084900016170BD0000002C0140F8
:1018F0000004004000440140004801400020004036
:10190000F0B5056A026A52085200026243688269B1
:10191000164C184E224092080C6892001443022282
:1019200095438A682A43124DA84204D0B04202D09F
:10193000114FB84206D10827BA43CF681743042293
:1019400097433A46A84204D0B04202D00A4DA8427A
:1019500006D103252D02AB434D691D438B692B43F3
:1019600043608461496841630262F0BD8FFFFEFFFE
:10197000002C0140004401400048014070B5046A59
:10198000026A10239A43026243688269164D2A4014
:1019900003252D02AA430D682D02154320229443EE
:1019A0008A6812012243114CA04207D18024A2432D
:1019B000CC68402624012243B24305E00C4CA042EF
:1019C00002D00C4CA04208D10324A402A3434C69CA
:1019D000A4001C438B699B002343436085614968D5
:1019E0008163026270BD0000FF8FFFFE002C01408A
:1019F000004401400048014070B5046A026AFF23B8
:101A000001339A4302624368C269164D2A40920824
:101A10000D68920015430122520294438A68120213
:101A20002243114CA04208D11446CA68C614B443DC
:101A3000120222430415A24305E00C4CA04202D03E
:101A40000B4CA04208D103242403A3434C69240176
:101A50001C438B691B0123434360C5614968C16313
:101A6000026270BD8FFFFEFF002C01400044014068
:101A70000048014030B5046A026A01231B039A43FF
:101A800002624368C269114D2A4003252D02AA4310
:101A90000D682D0215430122520394438A681203F4
:101AA00022430B4CA04205D00A4CA04202D00A4C63
:101AB000A04205D10124A403A3434C69A4012343FC
:101AC0004360C56149680164026230BDFF8FFFFE5B
:101AD000002C0140004401400048014070B5036AF9
:101AE000026A01263604B24302624268456D0E4C1A
:101AF00025400C682C437500AB430D892D041D4314
:101B00000A4B984205D00A4B984202D0094B9842A2
:101B100003D14B69B2431B021A43426044654968D2
:101B20008165056270BD00008FFFFEFF002C014043
:101B3000004401400048014070B5046A026A012374
:101B40001B059A4302624268436D104D2B400D689D
:101B50002D021D4301235B059C430B891E050C4B85
:101B60002643984205D00B4B984202D00A4B98422C
:101B700006D101241346A4044A69A34392021A43DE
:101B8000426045654968C165066270BDFF8FFFFE12
:101B9000002C01400044014000480140F8B50446D3
:101BA000416E4034002915D00068816880680901C1
:101BB0004D0F0A4E400F3746315C083F385CC0007D
:101BC000FEF70CFB6085785D715DC000FEF706FBDB
:101BD0002085F8BD01206085FAE700008C20000810
:101BE00010B5018D090707D501684A680123DB0399
:101BF0009A43836B1A434A60018DC90707D0016875
:101C00004A6801235B049A43C36A1A434A60018D00
:101C1000890707D501684A6801231B049A43036BAF
:101C20001A434A60018D490707D501684A680123B4
:101C30009B049A43436B1A434A60018DC90607D53A
:101C40000268916801231B039943C36B1943916098
:101C5000018D890607D501688A6801235B039A43D1
:101C6000036C1A438A60018D490612D503685A68CD
:101C700001210905446C8A4322435A60426C8A421E
:101C800007D10268516803235B059943836C1943AC
:101C90005160018D090607D501684A680123DB04FC
:101CA000C06C9A4302434A6010BD0000FEB5054671
:101CB0000026803504462E61FEF73CFC019020682A
:101CC000006820270007002817DA25480090002226
:101CD00039042046019B00F02BF900280DD0EFF3CA
:101CE0001080012181F3108821680A6880239A43BB
:101CF0000A6080F31088AF6028E020680068400721
:101D000027D5174800900121002289052046019B14
:101D100000F00EF900281CD0EFF31080012181F3B0
:101D2000108821680A68FF2321339A430A6080F3F0
:101D30001088EFF31080012181F3108821688A68F0
:101D4000520852008A6080F31088EF602E710320E1
:101D5000FEBDAF60EF60E66626672E710020FEBD17
:101D6000FFFFFF0110B5EFF31081012282F310880D
:101D700002681368FF242134A343136081F31088A1
:101D8000EFF31081012282F31088026893680D4CF2
:101D90002340936081F31088C16E01290BD1EFF3CA
:101DA0001081012282F31088026813681024A34373
:101DB000136081F3108820228C210A500021C16613
:101DC000416710BDFEFFFFEFF8B50446806821694A
:101DD000E2690843616900251143226808431168DC
:101DE0004B4B1940014311602068416803221203E4
:101DF0009143E26811434160A169206A0843216868
:101E00008A68444B1A4002438A602068C16A626A49
:101E1000090909011143C1623F492068884211D173
:101E20003E4840698007800F0FD0012806D0022865
:101E300002D003280BD103E0022109E0042107E0CE
:101E4000082105E03649884201D1002100E0102137
:101E50000120E369C003334A334E344F834227D114
:101E6000002906D0022907D0042907D008293FD12C
:101E700008E0FEF737FD03E0104603E0FEF746FDFD
:101E800000283AD0616A4900715AFEF7A7F96168E3
:101E900040004A088018FEF7A1F901461039B942FE
:101EA00026D82249491C01400007400F084322E080
:101EB000002906D0022907D0042907D0082917D104
:101EC00008E0FEF70FFD03E0104603E0FEF71EFDFD
:101ED000002812D0616A4900715AFEF77FF96168E3
:101EE0004A088018FEF77AF901461039B94201D93B
:101EF000012502E080B22168C860204601214030FF
:101F00004185018500206067A0672846F8BD000074
:101F1000F369FFCFFFF4FF11003801404010024089
:101F2000004400400024F4006C200008EFFF000093
:101F3000FFB581B005460E46044680350A9F32E063
:101F4000781C30D0FEF7F6FA0499401AB84218D837
:101F5000002F16D020680168490724D5802E22D092
:101F6000402E20D0C169C94309070CD40826066257
:101F70002046FFF7F7FE2E6100202871012005B0F2
:101F8000F0BD0320FBE7C069C04300050BD401206E
:101F90002168C00208622046FFF7E4FE2020286185
:101FA00000202871EDE72068C1693046884305D0DC
:101FB000002103988142C3D00020E0E70121F8E727
:101FC0008307FF22DB0E9A408907090E99400028FB
:101FD00008DB830809489B001B18186890430843D6
:101FE000186070470007000F0838830804489B00FA
:101FF0001B18D86990430843D861704700E400E09B
:1020000000ED00E0FEF7A4FAFFF701FCFFF772FA1B
:10201000FFF7E2FAFFF706FBFFF72AFBFFF786FB65
:10202000FFF7BAFB104D012240212846FEF77CFA4B
:102030007D20C000FEF7B8F9002240212846FEF7B7
:1020400073FAFF24F534012240212846FEF76CFA8A
:102050002046FEF7A9F9002240212846FEF764FA3F
:102060002046FEF7A1F9EEE700080050010002004B
:102070000400060008000A000C00100020004000C8
:1020800080000001010101030701000008040204AF
:102090000801010100000000000000000000000035
:1020A0000000000000000000000000000000000030
:1020B000000000000100000002000000030000001A
:1020C00004000000060000000700000008000000F7
:1020D00009000000000000000000000000000000F7
:1020E00000000000010000000200000003000000EA
:1020F000040000001421000800000020100000006F
:1021000004010008242100081000002058080000E5
:102110002001000801000000040000000000000091
:042120000024F400A3
:04000005080000C12E
:00000001FF
